{"abi":[{"type":"constructor","inputs":[],"stateMutability":"nonpayable"},{"type":"function","name":"allowance","inputs":[{"name":"owner","type":"address","internalType":"address"},{"name":"spender","type":"address","internalType":"address"}],"outputs":[{"name":"","type":"uint256","internalType":"uint256"}],"stateMutability":"view"},{"type":"function","name":"approve","inputs":[{"name":"spender","type":"address","internalType":"address"},{"name":"value","type":"uint256","internalType":"uint256"}],"outputs":[{"name":"","type":"bool","internalType":"bool"}],"stateMutability":"nonpayable"},{"type":"function","name":"balanceOf","inputs":[{"name":"account","type":"address","internalType":"address"}],"outputs":[{"name":"","type":"uint256","internalType":"uint256"}],"stateMutability":"view"},{"type":"function","name":"burn","inputs":[{"name":"amount","type":"uint256","internalType":"uint256"},{"name":"toChain","type":"string","internalType":"string"},{"name":"toAddress","type":"string","internalType":"string"}],"outputs":[],"stateMutability":"nonpayable"},{"type":"function","name":"decimals","inputs":[],"outputs":[{"name":"","type":"uint8","internalType":"uint8"}],"stateMutability":"view"},{"type":"function","name":"mint","inputs":[{"name":"to","type":"address","internalType":"address"},{"name":"amount","type":"uint256","internalType":"uint256"}],"outputs":[],"stateMutability":"nonpayable"},{"type":"function","name":"name","inputs":[],"outputs":[{"name":"","type":"string","internalType":"string"}],"stateMutability":"view"},{"type":"function","name":"owner","inputs":[],"outputs":[{"name":"","type":"address","internalType":"address"}],"stateMutability":"view"},{"type":"function","name":"renounceOwnership","inputs":[],"outputs":[],"stateMutability":"nonpayable"},{"type":"function","name":"symbol","inputs":[],"outputs":[{"name":"","type":"string","internalType":"string"}],"stateMutability":"view"},{"type":"function","name":"totalSupply","inputs":[],"outputs":[{"name":"","type":"uint256","internalType":"uint256"}],"stateMutability":"view"},{"type":"function","name":"transfer","inputs":[{"name":"to","type":"address","internalType":"address"},{"name":"value","type":"uint256","internalType":"uint256"}],"outputs":[{"name":"","type":"bool","internalType":"bool"}],"stateMutability":"nonpayable"},{"type":"function","name":"transferFrom","inputs":[{"name":"from","type":"address","internalType":"address"},{"name":"to","type":"address","internalType":"address"},{"name":"value","type":"uint256","internalType":"uint256"}],"outputs":[{"name":"","type":"bool","internalType":"bool"}],"stateMutability":"nonpayable"},{"type":"function","name":"transferOwnership","inputs":[{"name":"newOwner","type":"address","internalType":"address"}],"outputs":[],"stateMutability":"nonpayable"},{"type":"event","name":"Approval","inputs":[{"name":"owner","type":"address","indexed":true,"internalType":"address"},{"name":"spender","type":"address","indexed":true,"internalType":"address"},{"name":"value","type":"uint256","indexed":false,"internalType":"uint256"}],"anonymous":false},{"type":"event","name":"BridgeBurn","inputs":[{"name":"user","type":"address","indexed":true,"internalType":"address"},{"name":"amount","type":"uint256","indexed":false,"internalType":"uint256"},{"name":"toChain","type":"string","indexed":false,"internalType":"string"},{"name":"toAddress","type":"string","indexed":false,"internalType":"string"}],"anonymous":false},{"type":"event","name":"OwnershipTransferred","inputs":[{"name":"previousOwner","type":"address","indexed":true,"internalType":"address"},{"name":"newOwner","type":"address","indexed":true,"internalType":"address"}],"anonymous":false},{"type":"event","name":"Transfer","inputs":[{"name":"from","type":"address","indexed":true,"internalType":"address"},{"name":"to","type":"address","indexed":true,"internalType":"address"},{"name":"value","type":"uint256","indexed":false,"internalType":"uint256"}],"anonymous":false},{"type":"error","name":"ERC20InsufficientAllowance","inputs":[{"name":"spender","type":"address","internalType":"address"},{"name":"allowance","type":"uint256","internalType":"uint256"},{"name":"needed","type":"uint256","internalType":"uint256"}]},{"type":"error","name":"ERC20InsufficientBalance","inputs":[{"name":"sender","type":"address","internalType":"address"},{"name":"balance","type":"uint256","internalType":"uint256"},{"name":"needed","type":"uint256","internalType":"uint256"}]},{"type":"error","name":"ERC20InvalidApprover","inputs":[{"name":"approver","type":"address","internalType":"address"}]},{"type":"error","name":"ERC20InvalidReceiver","inputs":[{"name":"receiver","type":"address","internalType":"address"}]},{"type":"error","name":"ERC20InvalidSender","inputs":[{"name":"sender","type":"address","internalType":"address"}]},{"type":"error","name":"ERC20InvalidSpender","inputs":[{"name":"spender","type":"address","internalType":"address"}]},{"type":"error","name":"OwnableInvalidOwner","inputs":[{"name":"owner","type":"address","internalType":"address"}]},{"type":"error","name":"OwnableUnauthorizedAccount","inputs":[{"name":"account","type":"address","internalType":"address"}]}],"bytecode":{"object":"0x608060405234801561000f575f5ffd5b50336040518060400160405280600381526020017f49425400000000000000000000000000000000000000000000000000000000008152506040518060400160405280600381526020017f4942540000000000000000000000000000000000000000000000000000000000815250816003908161008c9190610435565b50806004908161009c9190610435565b5050505f73ffffffffffffffffffffffffffffffffffffffff168173ffffffffffffffffffffffffffffffffffffffff160361010f575f6040517f1e4fbdf70000000000000000000000000000000000000000000000000000000081526004016101069190610543565b60405180910390fd5b61011e8161012460201b60201c565b5061055c565b5f60055f9054906101000a900473ffffffffffffffffffffffffffffffffffffffff1690508160055f6101000a81548173ffffffffffffffffffffffffffffffffffffffff021916908373ffffffffffffffffffffffffffffffffffffffff1602179055508173ffffffffffffffffffffffffffffffffffffffff168173ffffffffffffffffffffffffffffffffffffffff167f8be0079c531659141344cd1fd0a4f28419497f9722a3daafe3b4186f6b6457e060405160405180910390a35050565b5f81519050919050565b7f4e487b71000000000000000000000000000000000000000000000000000000005f52604160045260245ffd5b7f4e487b71000000000000000000000000000000000000000000000000000000005f52602260045260245ffd5b5f600282049050600182168061026257607f821691505b6020821081036102755761027461021e565b5b50919050565b5f819050815f5260205f209050919050565b5f6020601f8301049050919050565b5f82821b905092915050565b5f600883026102d77fffffffffffffffffffffffffffffffffffffffffffffffffffffffffffffffff8261029c565b6102e1868361029c565b95508019841693508086168417925050509392505050565b5f819050919050565b5f819050919050565b5f61032561032061031b846102f9565b610302565b6102f9565b9050919050565b5f819050919050565b61033e8361030b565b61035261034a8261032c565b8484546102a8565b825550505050565b5f5f905090565b61036961035a565b610374818484610335565b505050565b5f5b8281101561039a5761038f5f828401610361565b60018101905061037b565b505050565b601f8211156103ed57828211156103ec576103b98161027b565b6103c28361028d565b6103cb8561028d565b60208610156103d8575f90505b8083016103e782840382610379565b505050505b5b505050565b5f82821c905092915050565b5f61040d5f19846008026103f2565b1980831691505092915050565b5f61042583836103fe565b9150826002028217905092915050565b61043e826101e7565b67ffffffffffffffff811115610457576104566101f1565b5b610461825461024b565b61046c82828561039f565b5f60209050601f83116001811461049d575f841561048b578287015190505b610495858261041a565b8655506104fc565b601f1984166104ab8661027b565b5f5b828110156104d2578489015182556001820191506020850194506020810190506104ad565b868310156104ef57848901516104eb601f8916826103fe565b8355505b6001600288020188555050505b505050505050565b5f73ffffffffffffffffffffffffffffffffffffffff82169050919050565b5f61052d82610504565b9050919050565b61053d81610523565b82525050565b5f6020820190506105565f830184610534565b92915050565b611437806105695f395ff3fe608060405234801561000f575f5ffd5b50600436106100e8575f3560e01c8063715018a61161008a578063a9059cbb11610064578063a9059cbb14610238578063ba211db014610268578063dd62ed3e14610284578063f2fde38b146102b4576100e8565b8063715018a6146101f25780638da5cb5b146101fc57806395d89b411461021a576100e8565b806323b872dd116100c657806323b872dd14610158578063313ce5671461018857806340c10f19146101a657806370a08231146101c2576100e8565b806306fdde03146100ec578063095ea7b31461010a57806318160ddd1461013a575b5f5ffd5b6100f46102d0565b6040516101019190610eac565b60405180910390f35b610124600480360381019061011f9190610f6a565b610360565b6040516101319190610fc2565b60405180910390f35b610142610382565b60405161014f9190610fea565b60405180910390f35b610172600480360381019061016d9190611003565b61038b565b60405161017f9190610fc2565b60405180910390f35b6101906103b9565b60405161019d919061106e565b60405180910390f35b6101c060048036038101906101bb9190610f6a565b6103c1565b005b6101dc60048036038101906101d79190611087565b6103d7565b6040516101e99190610fea565b60405180910390f35b6101fa61041c565b005b61020461042f565b60405161021191906110c1565b60405180910390f35b610222610457565b60405161022f9190610eac565b60405180910390f35b610252600480360381019061024d9190610f6a565b6104e7565b60405161025f9190610fc2565b60405180910390f35b610282600480360381019061027d9190611206565b610509565b005b61029e6004803603810190610299919061128e565b61056a565b6040516102ab9190610fea565b60405180910390f35b6102ce60048036038101906102c99190611087565b6105ec565b005b6060600380546102df906112f9565b80601f016020809104026020016040519081016040528092919081815260200182805461030b906112f9565b80156103565780601f1061032d57610100808354040283529160200191610356565b820191905f5260205f20905b81548152906001019060200180831161033957829003601f168201915b5050505050905090565b5f5f61036a610670565b9050610377818585610677565b600191505092915050565b5f600254905090565b5f5f610395610670565b90506103a2858285610689565b6103ad85858561071c565b60019150509392505050565b5f6012905090565b6103c961080c565b6103d38282610893565b5050565b5f5f5f8373ffffffffffffffffffffffffffffffffffffffff1673ffffffffffffffffffffffffffffffffffffffff1681526020019081526020015f20549050919050565b61042461080c565b61042d5f610912565b565b5f60055f9054906101000a900473ffffffffffffffffffffffffffffffffffffffff16905090565b606060048054610466906112f9565b80601f0160208091040260200160405190810160405280929190818152602001828054610492906112f9565b80156104dd5780601f106104b4576101008083540402835291602001916104dd565b820191905f5260205f20905b8154815290600101906020018083116104c057829003601f168201915b5050505050905090565b5f5f6104f1610670565b90506104fe81858561071c565b600191505092915050565b61051333846109d5565b3373ffffffffffffffffffffffffffffffffffffffff167f5e40fe33c03c8c884cddc56574e4d3a2663dfc809fbfa004e20cc7d01140f4ce84848460405161055d93929190611329565b60405180910390a2505050565b5f60015f8473ffffffffffffffffffffffffffffffffffffffff1673ffffffffffffffffffffffffffffffffffffffff1681526020019081526020015f205f8373ffffffffffffffffffffffffffffffffffffffff1673ffffffffffffffffffffffffffffffffffffffff1681526020019081526020015f2054905092915050565b6105f461080c565b5f73ffffffffffffffffffffffffffffffffffffffff168173ffffffffffffffffffffffffffffffffffffffff1603610664575f6040517f1e4fbdf700000000000000000000000000000000000000000000000000000000815260040161065b91906110c1565b60405180910390fd5b61066d81610912565b50565b5f33905090565b6106848383836001610a54565b505050565b5f610694848461056a565b90507fffffffffffffffffffffffffffffffffffffffffffffffffffffffffffffffff8110156107165781811015610707578281836040517ffb8f41b20000000000000000000000000000000000000000000000000000000081526004016106fe9392919061136c565b60405180910390fd5b61071584848484035f610a54565b5b50505050565b5f73ffffffffffffffffffffffffffffffffffffffff168373ffffffffffffffffffffffffffffffffffffffff160361078c575f6040517f96c6fd1e00000000000000000000000000000000000000000000000000000000815260040161078391906110c1565b60405180910390fd5b5f73ffffffffffffffffffffffffffffffffffffffff168273ffffffffffffffffffffffffffffffffffffffff16036107fc575f6040517fec442f050000000000000000000000000000000000000000000000000000000081526004016107f391906110c1565b60405180910390fd5b610807838383610c23565b505050565b610814610670565b73ffffffffffffffffffffffffffffffffffffffff1661083261042f565b73ffffffffffffffffffffffffffffffffffffffff161461089157610855610670565b6040517f118cdaa700000000000000000000000000000000000000000000000000000000815260040161088891906110c1565b60405180910390fd5b565b5f73ffffffffffffffffffffffffffffffffffffffff168273ffffffffffffffffffffffffffffffffffffffff1603610903575f6040517fec442f050000000000000000000000000000000000000000000000000000000081526004016108fa91906110c1565b60405180910390fd5b61090e5f8383610c23565b5050565b5f60055f9054906101000a900473ffffffffffffffffffffffffffffffffffffffff1690508160055f6101000a81548173ffffffffffffffffffffffffffffffffffffffff021916908373ffffffffffffffffffffffffffffffffffffffff1602179055508173ffffffffffffffffffffffffffffffffffffffff168173ffffffffffffffffffffffffffffffffffffffff167f8be0079c531659141344cd1fd0a4f28419497f9722a3daafe3b4186f6b6457e060405160405180910390a35050565b5f73ffffffffffffffffffffffffffffffffffffffff168273ffffffffffffffffffffffffffffffffffffffff1603610a45575f6040517f96c6fd1e000000000000000000000000000000000000000000000000000000008152600401610a3c91906110c1565b60405180910390fd5b610a50825f83610c23565b5050565b5f73ffffffffffffffffffffffffffffffffffffffff168473ffffffffffffffffffffffffffffffffffffffff1603610ac4575f6040517fe602df05000000000000000000000000000000000000000000000000000000008152600401610abb91906110c1565b60405180910390fd5b5f73ffffffffffffffffffffffffffffffffffffffff168373ffffffffffffffffffffffffffffffffffffffff1603610b34575f6040517f94280d62000000000000000000000000000000000000000000000000000000008152600401610b2b91906110c1565b60405180910390fd5b8160015f8673ffffffffffffffffffffffffffffffffffffffff1673ffffffffffffffffffffffffffffffffffffffff1681526020019081526020015f205f8573ffffffffffffffffffffffffffffffffffffffff1673ffffffffffffffffffffffffffffffffffffffff1681526020019081526020015f20819055508015610c1d578273ffffffffffffffffffffffffffffffffffffffff168473ffffffffffffffffffffffffffffffffffffffff167f8c5be1e5ebec7d5bd14f71427d1e84f3dd0314c0f7b2291e5b200ac8c7c3b92584604051610c149190610fea565b60405180910390a35b50505050565b5f73ffffffffffffffffffffffffffffffffffffffff168373ffffffffffffffffffffffffffffffffffffffff1603610c73578060025f828254610c6791906113ce565b92505081905550610d41565b5f5f5f8573ffffffffffffffffffffffffffffffffffffffff1673ffffffffffffffffffffffffffffffffffffffff1681526020019081526020015f2054905081811015610cfc578381836040517fe450d38c000000000000000000000000000000000000000000000000000000008152600401610cf39392919061136c565b60405180910390fd5b8181035f5f8673ffffffffffffffffffffffffffffffffffffffff1673ffffffffffffffffffffffffffffffffffffffff1681526020019081526020015f2081905550505b5f73ffffffffffffffffffffffffffffffffffffffff168273ffffffffffffffffffffffffffffffffffffffff1603610d88578060025f8282540392505081905550610dd2565b805f5f8473ffffffffffffffffffffffffffffffffffffffff1673ffffffffffffffffffffffffffffffffffffffff1681526020019081526020015f205f82825401925050819055505b8173ffffffffffffffffffffffffffffffffffffffff168373ffffffffffffffffffffffffffffffffffffffff167fddf252ad1be2c89b69c2b068fc378daa952ba7f163c4a11628f55a4df523b3ef83604051610e2f9190610fea565b60405180910390a3505050565b5f81519050919050565b5f82825260208201905092915050565b8281835e5f83830152505050565b5f601f19601f8301169050919050565b5f610e7e82610e3c565b610e888185610e46565b9350610e98818560208601610e56565b610ea181610e64565b840191505092915050565b5f6020820190508181035f830152610ec48184610e74565b905092915050565b5f604051905090565b5f5ffd5b5f5ffd5b5f73ffffffffffffffffffffffffffffffffffffffff82169050919050565b5f610f0682610edd565b9050919050565b610f1681610efc565b8114610f20575f5ffd5b50565b5f81359050610f3181610f0d565b92915050565b5f819050919050565b610f4981610f37565b8114610f53575f5ffd5b50565b5f81359050610f6481610f40565b92915050565b5f5f60408385031215610f8057610f7f610ed5565b5b5f610f8d85828601610f23565b9250506020610f9e85828601610f56565b9150509250929050565b5f8115159050919050565b610fbc81610fa8565b82525050565b5f602082019050610fd55f830184610fb3565b92915050565b610fe481610f37565b82525050565b5f602082019050610ffd5f830184610fdb565b92915050565b5f5f5f6060848603121561101a57611019610ed5565b5b5f61102786828701610f23565b935050602061103886828701610f23565b925050604061104986828701610f56565b9150509250925092565b5f60ff82169050919050565b61106881611053565b82525050565b5f6020820190506110815f83018461105f565b92915050565b5f6020828403121561109c5761109b610ed5565b5b5f6110a984828501610f23565b91505092915050565b6110bb81610efc565b82525050565b5f6020820190506110d45f8301846110b2565b92915050565b5f5ffd5b5f5ffd5b7f4e487b71000000000000000000000000000000000000000000000000000000005f52604160045260245ffd5b61111882610e64565b810181811067ffffffffffffffff82111715611137576111366110e2565b5b80604052505050565b5f611149610ecc565b9050611155828261110f565b919050565b5f67ffffffffffffffff821115611174576111736110e2565b5b61117d82610e64565b9050602081019050919050565b828183375f83830152505050565b5f6111aa6111a58461115a565b611140565b9050828152602081018484840111156111c6576111c56110de565b5b6111d184828561118a565b509392505050565b5f82601f8301126111ed576111ec6110da565b5b81356111fd848260208601611198565b91505092915050565b5f5f5f6060848603121561121d5761121c610ed5565b5b5f61122a86828701610f56565b935050602084013567ffffffffffffffff81111561124b5761124a610ed9565b5b611257868287016111d9565b925050604084013567ffffffffffffffff81111561127857611277610ed9565b5b611284868287016111d9565b9150509250925092565b5f5f604083850312156112a4576112a3610ed5565b5b5f6112b185828601610f23565b92505060206112c285828601610f23565b9150509250929050565b7f4e487b71000000000000000000000000000000000000000000000000000000005f52602260045260245ffd5b5f600282049050600182168061131057607f821691505b602082108103611323576113226112cc565b5b50919050565b5f60608201905061133c5f830186610fdb565b818103602083015261134e8185610e74565b905081810360408301526113628184610e74565b9050949350505050565b5f60608201905061137f5f8301866110b2565b61138c6020830185610fdb565b6113996040830184610fdb565b949350505050565b7f4e487b71000000000000000000000000000000000000000000000000000000005f52601160045260245ffd5b5f6113d882610f37565b91506113e383610f37565b92508282019050808211156113fb576113fa6113a1565b5b9291505056fea2646970667358221220869a0a6278193c97082407ba22d1c24ab3691fe631d45e417fe64567005801e364736f6c63430008210033","linkReferences":{}},"methodIdentifiers":{"allowance(address,address)":"dd62ed3e","approve(address,uint256)":"095ea7b3","balanceOf(address)":"70a08231","burn(uint256,string,string)":"ba211db0","decimals()":"313ce567","mint(address,uint256)":"40c10f19","name()":"06fdde03","owner()":"8da5cb5b","renounceOwnership()":"715018a6","symbol()":"95d89b41","totalSupply()":"18160ddd","transfer(address,uint256)":"a9059cbb","transferFrom(address,address,uint256)":"23b872dd","transferOwnership(address)":"f2fde38b"},"id":22}