{"abi":[{"type":"constructor","inputs":[],"stateMutability":"nonpayable"},{"type":"function","name":"balanceOf","inputs":[{"name":"","type":"address","internalType":"address"}],"outputs":[{"name":"","type":"uint256","internalType":"uint256"}],"stateMutability":"view"},{"type":"function","name":"burn","inputs":[{"name":"from","type":"address","internalType":"address"},{"name":"amount","type":"uint256","internalType":"uint256"}],"outputs":[],"stateMutability":"nonpayable"},{"type":"function","name":"decimals","inputs":[],"outputs":[{"name":"","type":"uint8","internalType":"uint8"}],"stateMutability":"view"},{"type":"function","name":"mint","inputs":[{"name":"to","type":"address","internalType":"address"},{"name":"amount","type":"uint256","internalType":"uint256"}],"outputs":[],"stateMutability":"nonpayable"},{"type":"function","name":"name","inputs":[],"outputs":[{"name":"","type":"string","internalType":"string"}],"stateMutability":"view"},{"type":"function","name":"owner","inputs":[],"outputs":[{"name":"","type":"address","internalType":"address"}],"stateMutability":"view"},{"type":"function","name":"symbol","inputs":[],"outputs":[{"name":"","type":"string","internalType":"string"}],"stateMutability":"view"},{"type":"function","name":"totalSupply","inputs":[],"outputs":[{"name":"","type":"uint256","internalType":"uint256"}],"stateMutability":"view"},{"type":"event","name":"Transfer","inputs":[{"name":"from","type":"address","indexed":true,"internalType":"address"},{"name":"to","type":"address","indexed":true,"internalType":"address"},{"name":"value","type":"uint256","indexed":false,"internalType":"uint256"}],"anonymous":false}],"bytecode":{"object":"0x60806040526040518060400160405280600981526020017f49425420546f6b656e00000000000000000000000000000000000000000000008152505f90816100479190610347565b506040518060400160405280600381526020017f49425400000000000000000000000000000000000000000000000000000000008152506001908161008c9190610347565b50601260025f6101000a81548160ff021916908360ff1602179055503480156100b3575f5ffd5b503360045f6101000a81548173ffffffffffffffffffffffffffffffffffffffff021916908373ffffffffffffffffffffffffffffffffffffffff160217905550610416565b5f81519050919050565b7f4e487b71000000000000000000000000000000000000000000000000000000005f52604160045260245ffd5b7f4e487b71000000000000000000000000000000000000000000000000000000005f52602260045260245ffd5b5f600282049050600182168061017457607f821691505b60208210810361018757610186610130565b5b50919050565b5f819050815f5260205f209050919050565b5f6020601f8301049050919050565b5f82821b905092915050565b5f600883026101e97fffffffffffffffffffffffffffffffffffffffffffffffffffffffffffffffff826101ae565b6101f386836101ae565b95508019841693508086168417925050509392505050565b5f819050919050565b5f819050919050565b5f61023761023261022d8461020b565b610214565b61020b565b9050919050565b5f819050919050565b6102508361021d565b61026461025c8261023e565b8484546101ba565b825550505050565b5f5f905090565b61027b61026c565b610286818484610247565b505050565b5f5b828110156102ac576102a15f828401610273565b60018101905061028d565b505050565b601f8211156102ff57828211156102fe576102cb8161018d565b6102d48361019f565b6102dd8561019f565b60208610156102ea575f90505b8083016102f98284038261028b565b505050505b5b505050565b5f82821c905092915050565b5f61031f5f1984600802610304565b1980831691505092915050565b5f6103378383610310565b9150826002028217905092915050565b610350826100f9565b67ffffffffffffffff81111561036957610368610103565b5b610373825461015d565b61037e8282856102b1565b5f60209050601f8311600181146103af575f841561039d578287015190505b6103a7858261032c565b86555061040e565b601f1984166103bd8661018d565b5f5b828110156103e4578489015182556001820191506020850194506020810190506103bf565b8683101561040157848901516103fd601f891682610310565b8355505b6001600288020188555050505b505050505050565b610a3b806104235f395ff3fe608060405234801561000f575f5ffd5b5060043610610086575f3560e01c806370a082311161005957806370a08231146101005780638da5cb5b1461013057806395d89b411461014e5780639dc29fac1461016c57610086565b806306fdde031461008a57806318160ddd146100a8578063313ce567146100c657806340c10f19146100e4575b5f5ffd5b610092610188565b60405161009f91906106a7565b60405180910390f35b6100b0610213565b6040516100bd91906106df565b60405180910390f35b6100ce610219565b6040516100db9190610713565b60405180910390f35b6100fe60048036038101906100f991906107b4565b61022b565b005b61011a600480360381019061011591906107f2565b61038e565b60405161012791906106df565b60405180910390f35b6101386103a3565b604051610145919061082c565b60405180910390f35b6101566103c8565b60405161016391906106a7565b60405180910390f35b610186600480360381019061018191906107b4565b610454565b005b5f805461019490610872565b80601f01602080910402602001604051908101604052809291908181526020018280546101c090610872565b801561020b5780601f106101e25761010080835404028352916020019161020b565b820191905f5260205f20905b8154815290600101906020018083116101ee57829003601f168201915b505050505081565b60035481565b60025f9054906101000a900460ff1681565b60045f9054906101000a900473ffffffffffffffffffffffffffffffffffffffff1673ffffffffffffffffffffffffffffffffffffffff163373ffffffffffffffffffffffffffffffffffffffff16146102ba576040517f08c379a00000000000000000000000000000000000000000000000000000000081526004016102b1906108ec565b60405180910390fd5b8060035f8282546102cb9190610937565b925050819055508060055f8473ffffffffffffffffffffffffffffffffffffffff1673ffffffffffffffffffffffffffffffffffffffff1681526020019081526020015f205f82825461031e9190610937565b925050819055508173ffffffffffffffffffffffffffffffffffffffff165f73ffffffffffffffffffffffffffffffffffffffff167fddf252ad1be2c89b69c2b068fc378daa952ba7f163c4a11628f55a4df523b3ef8360405161038291906106df565b60405180910390a35050565b6005602052805f5260405f205f915090505481565b60045f9054906101000a900473ffffffffffffffffffffffffffffffffffffffff1681565b600180546103d590610872565b80601f016020809104026020016040519081016040528092919081815260200182805461040190610872565b801561044c5780601f106104235761010080835404028352916020019161044c565b820191905f5260205f20905b81548152906001019060200180831161042f57829003601f168201915b505050505081565b60045f9054906101000a900473ffffffffffffffffffffffffffffffffffffffff1673ffffffffffffffffffffffffffffffffffffffff163373ffffffffffffffffffffffffffffffffffffffff16146104e3576040517f08c379a00000000000000000000000000000000000000000000000000000000081526004016104da906108ec565b60405180910390fd5b8060055f8473ffffffffffffffffffffffffffffffffffffffff1673ffffffffffffffffffffffffffffffffffffffff1681526020019081526020015f20541015610563576040517f08c379a000000000000000000000000000000000000000000000000000000000815260040161055a906109b4565b60405180910390fd5b8060055f8473ffffffffffffffffffffffffffffffffffffffff1673ffffffffffffffffffffffffffffffffffffffff1681526020019081526020015f205f8282546105af91906109d2565b925050819055508060035f8282546105c791906109d2565b925050819055505f73ffffffffffffffffffffffffffffffffffffffff168273ffffffffffffffffffffffffffffffffffffffff167fddf252ad1be2c89b69c2b068fc378daa952ba7f163c4a11628f55a4df523b3ef8360405161062b91906106df565b60405180910390a35050565b5f81519050919050565b5f82825260208201905092915050565b8281835e5f83830152505050565b5f601f19601f8301169050919050565b5f61067982610637565b6106838185610641565b9350610693818560208601610651565b61069c8161065f565b840191505092915050565b5f6020820190508181035f8301526106bf818461066f565b905092915050565b5f819050919050565b6106d9816106c7565b82525050565b5f6020820190506106f25f8301846106d0565b92915050565b5f60ff82169050919050565b61070d816106f8565b82525050565b5f6020820190506107265f830184610704565b92915050565b5f5ffd5b5f73ffffffffffffffffffffffffffffffffffffffff82169050919050565b5f61075982610730565b9050919050565b6107698161074f565b8114610773575f5ffd5b50565b5f8135905061078481610760565b92915050565b610793816106c7565b811461079d575f5ffd5b50565b5f813590506107ae8161078a565b92915050565b5f5f604083850312156107ca576107c961072c565b5b5f6107d785828601610776565b92505060206107e8858286016107a0565b9150509250929050565b5f602082840312156108075761080661072c565b5b5f61081484828501610776565b91505092915050565b6108268161074f565b82525050565b5f60208201905061083f5f83018461081d565b92915050565b7f4e487b71000000000000000000000000000000000000000000000000000000005f52602260045260245ffd5b5f600282049050600182168061088957607f821691505b60208210810361089c5761089b610845565b5b50919050565b7f4e6f74206f776e657200000000000000000000000000000000000000000000005f82015250565b5f6108d6600983610641565b91506108e1826108a2565b602082019050919050565b5f6020820190508181035f830152610903816108ca565b9050919050565b7f4e487b71000000000000000000000000000000000000000000000000000000005f52601160045260245ffd5b5f610941826106c7565b915061094c836106c7565b92508282019050808211156109645761096361090a565b5b92915050565b7f496e73756666696369656e742062616c616e63650000000000000000000000005f82015250565b5f61099e601483610641565b91506109a98261096a565b602082019050919050565b5f6020820190508181035f8301526109cb81610992565b9050919050565b5f6109dc826106c7565b91506109e7836106c7565b92508282039050818111156109ff576109fe61090a565b5b9291505056fea264697066735822122041df74352b878a7a8303d01b1aa37dcbd0065d656695781a215988844eb94aa864736f6c63430008210033","linkReferences":{}},"methodIdentifiers":{"balanceOf(address)":"70a08231","burn(address,uint256)":"9dc29fac","decimals()":"313ce567","mint(address,uint256)":"40c10f19","name()":"06fdde03","owner()":"8da5cb5b","symbol()":"95d89b41","totalSupply()":"18160ddd"},"id":0}